:020000040800F2
:1000000048570020450100084D0100084F01000835
:1000100051010008530100085501000800000000CC
:100020000000000000000000000000005701000870
:1000300059010008000000005B0100085D01000894
:100040005F0100085F0100085F0100085F01000810
:100050005F0100085F0100085F0100085F01000800
:100060005F0100085F0100085F0100085F010008F0
:100070005F0100085F0100085F0100085F010008E0
:100080005F0100085F0100085F0100085F010008D0
:100090005F0100085F0100085F0100085F010008C0
:1000A0005F0100085F0100085F0100085F010008B0
:1000B0005F0100085F0100085F0100085F010008A0
:1000C0005F0100085F0100085F0100085F01000890
:1000D0005F0100085F0100085F0100085F01000880
:1000E0005F0100085F0100085F0100085F01000870
:1000F0005F0100085F0100085F0100085F01000860
:100100005F0100085F0100085F0100085F0100084F
:100110005F0100085F0100085F0100085F0100083F
:100120005F0100085F0100085F0100085F0100082F
:10013000DFF80CD000F04EF9004800478144000879
:10014000485700200648804706480047FEE7FEE77C
:10015000FEE7FEE7FEE7FEE7FEE7FEE7FEE7FEE777
:10016000693F0008310100082DE9FE4F81EA0304D0
:1001700004F0004421F0004100944FF0000B23F004
:10018000004350EA01045ED052EA03045BD0C3F39B
:100190000A54C1F30A552C44A4F2F3340194A0FB91
:1001A0000254C1F3130141F48011C3F3130343F468
:1001B000801301FB024400FB034E840A970A44EAC1
:1001C000815447EA8357A4FB076802958D0A05FB13
:1001D00007854FEA932C04FB0C542705029D4FEA38
:1001E000065847EA1637B5EB08056EEB070C870E85
:1001F000920E47EA811742EA8312A7FB0201B6EB8F
:100200000B0164EB00042B0D43EA0C335E1844EB46
:100210001C50DA465146E7FB0201C5F313044FEACE
:100220000B3343EA14534FEA0432019C43EA0603BA
:10023000A4F10C040294009CCDE900B400F07CF819
:1002400003B0BDE8F08F00200146F9E70EB540F29B
:10025000334102910021CDE900110A460B4600F01E
:100260006BF803B000BDC1F30A5210B5C1F313011E
:1002700040F2FF3341F480119A4201DA002010BDB0
:1002800040F233439A42A2F2334203DC524200F07E
:1002900034F810BD904010BD2DE9F05F05460020F8
:1002A00092469B4688460646814640241BE02846E7
:1002B00041464746224600F020F853465A46C01AA7
:1002C000914110D311461846224600F095F82D1A98
:1002D00067EB01084F4622460120002100F08CF810
:1002E00017EB00094E41201EA4F10104DFDC484653
:1002F00031462A464346BDE8F09F202A04DB203AD7
:1003000021FA02F00021704721FA02F3D040C2F135
:100310002002914008431946704710B5141E73F12E
:10032000000408DA401C41F1000192185B411A43B5
:1003300001D120F0010010BD2DE9F04D92469B4601
:1003400011B1B1FA81F202E0B0FA80F220329046A7
:1003500000F052F804460F4640EA0A0041EA0B0159
:1003600053465A46084313D0114653EA010019D0A8
:10037000C8F140025046FFF7C0FF05460E46504602
:100380005946424600F038F8084305D0012004E001
:1003900020463946BDE8F08D0020054346EAE07668
:1003A0002C4337430A986305E40AA0EB08000022B7
:1003B000FD0A44EA47540A3002D500200146E9E725
:1003C000010510196941DDE9084500196941BDE8D9
:1003D000F04DA2E7064C074D06E0E06840F001034F
:1003E00094E8070098471034AC42F6D3FFF7A4FE18
:1003F00094EC0008B4EC0008202A04DB203A00FA50
:1004000002F1002070479140C2F1200320FA03F36B
:1004100019439040704770B58D1810F8014B14F0D7
:10042000030201D110F8012B231106D110F8013B72
:1004300003E010F8016B01F8016B521EF9D1ABB16A
:1004400010F8012B04F00C048A1A0C2C03D0A2EB38
:1004500084129B1C08E010F8014BA2EB0422F8E781
:1004600012F8014B01F8014B5B1EF9D5A942D4D318
:10047000002070BD1CB527A00068019026A0006870
:1004800000904FF48041254802F07BFC002003F0EF
:10049000C5FD002404E001A9085D03F0BFFD641C54
:1004A000042CF8DB4FF480411C4802F06CFC0A205D
:1004B00002F0CCFA4FF48041184802F062FC0120AF
:1004C00003F0ACFD002404E01DF8040003F0A6FDD9
:1004D000641C042CF8DB4FF48041104802F053FCFC
:1004E0000A2002F0B3FA4FF400610C4802F049FC14
:1004F0000A2002F0ABFA4FF40061084802F043FC16
:100500000A2002F0A3FA4FF40061044802F039FC1B
:100510001CBD00000040000001690820000C0140E3
:100520002DE9F04F85B005460E4617469846DDE9A1
:100530000E9AAB4604960397CDF80880CDF8049048
:10054000CDF800A000205249C8718871049EB00601
:10055000000E4871049EC6F3871008710020C87011
:1005600088704FEA8B60000E4870CBF387100870DC
:1005700000204849C8718871DDF808804FEA88601A
:10058000000E4871DDF80880C8F38710087100205C
:10059000C8708870039FB806000E4870039FC7F3A9
:1005A000871008703C49DDF800A081F803A0DDF851
:1005B00000A04FEA2A208870DDF8049081F80190AD
:1005C000DDF804904FEA292008704FF48041334849
:1005D00002F0D7FB0B2003F021FD002404E02C499E
:1005E000085D03F01BFD641C082CF8DB4FF4804110
:1005F0002A4802F0C8FB0A2002F028FA4FF4804192
:10060000264802F0BEFB0C2003F008FD002404E0A5
:100610002049085D03F002FD641C082CF8DB4FF450
:1006200080411E4802F0AFFB0A2002F00FFA4FF49F
:1006300080411A4802F0A5FB0D2003F0EFFC0024D6
:1006400004E01549085D03F0E9FC641C042CF8DBA8
:100650004FF48041114802F096FB0A2002F0F6F9AF
:100660004FF400610D4802F08CFB0A2002F0EEF915
:100670004FF40061094802F086FB0A2002F0E6F917
:100680004FF40061054802F07CFB05B0BDE8F08F37
:10069000C8020020D0020020D8020020000C014037
:1006A0001CB527A00068019026A0006800904FF4B8
:1006B0008041254802F065FB002003F0AFFC0024D8
:1006C00004E001A9085D03F0A9FC641C042CF8DB1C
:1006D0004FF480411C4802F056FB0A2002F0B6F9A4
:1006E0004FF48041184802F04CFB012003F096FCC7
:1006F000002404E01DF8040003F090FC641C042CAA
:10070000F8DB4FF48041104802F03DFB0A2002F074
:100710009DF94FF400610C4802F033FB0A2002F00F
:1007200095F94FF40061084802F02DFB0A2002F011
:100730008DF94FF40061044802F023FB1CBD00005A
:100740000040000000480820000C01402DE9FF4F48
:1007500087B08B46DDE9149A0798FFF777FD684A62
:10076000684BCDE90001FFF7FFFCCDE90201FFF77F
:100770007AFD05465846FFF769FD614A614BCDE9B0
:100780000001FFF7F1FCCDE90201FFF76CFD064621
:100790000998FFF75BFD5A4A5A4BCDE90001FFF774
:1007A000E3FCCDE90201FFF75EFD07460A98FFF77B
:1007B0004DFD534A534BCDE90001FFF7D5FCCDE980
:1007C0000201FFF750FD8046CDF81490CDF810A03F
:1007D0004D49CE71300A8871300C4871300E087165
:1007E000CD70280A8870280C4870280E0870474978
:1007F00081F807804FEA182088714FEA1840487145
:100800004FEA18600871CF70380A8870380C487049
:10081000380E08703E49DDF810A081F803A0DDF81D
:1008200010A04FEA2A208870DDF8149081F801901A
:10083000DDF814904FEA292008704FF480413548C4
:1008400002F09FFA0B2003F0E9FB002404E02E499C
:10085000085D03F0E3FB641C082CF8DB4FF48041D7
:100860002C4802F090FA0A2002F0F0F84FF4804190
:10087000284802F086FA0C2003F0D0FB002404E0A4
:100880002249085D03F0CAFB641C082CF8DB4FF416
:100890008041204802F077FA0A2002F0D7F84FF49E
:1008A00080411C4802F06DFA0D2003F0B7FB0024D4
:1008B00004E01749085D03F0B1FB641C042CF8DB6D
:1008C0004FF48041134802F05EFA0A2002F0BEF8AD
:1008D0004FF400610F4802F054FA0A2002F0B6F813
:1008E0004FF400610B4802F04EFA0A2002F0AEF815
:1008F0004FF40061074802F044FA0BB0BDE8F08FF6
:1009000095D626E80B2E1140C8020020D002002008
:10091000D8020020000C01401CB527A000680190FF
:1009200026A0006800904FF48041254802F029FA83
:10093000002003F073FB002404E001A9085D03F02C
:100940006DFB641C042CF8DB4FF480411C4802F062
:100950001AFA0A2002F07AF84FF48041184802F09F
:1009600010FA012003F05AFB002404E01DF80400F3
:1009700003F054FB641C042CF8DB4FF48041104856
:1009800002F001FA0A2002F061F84FF400610C480D
:1009900002F0F7F90A2002F059F84FF40061084814
:1009A00002F0F1F90A2002F051F84FF40061044816
:1009B00002F0E7F91CBD00000040000001580820CB
:1009C000000C01402DE9FF4F87B08B46DDE914563E
:1009D0000798FFF73BFC604A604BCDE90001FFF749
:1009E000C3FBCDE90201FFF73EFC07465846FFF77F
:1009F0002DFC594A594BCDE90001FFF7B5FBCDE974
:100A00000201FFF730FC80460998FFF71FFC524AAD
:100A1000524BCDE90001FFF7A7FBCDE90201FFF73B
:100A200022FC81460A98FFF711FC4B4A4B4BCDE95B
:100A30000001FFF799FBCDE90201FFF714FC8246A4
:100A40003F044FEA08484FEA09494FEA0A4A059528
:100A50000496434981F807804FEA18208871CF70C7
:100A6000380A88703F4981F807A04FEA1A20887138
:100A700081F803904FEA192088703B49049ECE709C
:100A8000049E30128870059D4D70059D28120870D7
:100A90004FF48041354802F074F90B2003F0BEFAA0
:100AA000002404E02E49085D03F0B8FA641C082C09
:100AB000F8DB4FF480412D4802F065F90A2001F07F
:100AC000C5FF4FF48041294802F05BF90C2003F088
:100AD000A5FA002404E02349085D03F09FFA641C92
:100AE000082CF8DB4FF48041204802F04CF90A2032
:100AF00001F0ACFF4FF480411C4802F042F90D2098
:100B000003F08CFA002404E01749085D03F086FA2C
:100B1000641C042CF8DB4FF48041144802F033F9D4
:100B20000A2001F093FF4FF40061104802F029F908
:100B30000A2001F08BFF4FF400610C4802F023F90A
:100B40000A2001F083FF4FF40061084802F019F910
:100B50000BB0BDE8F08F0000E17A14AE47C16640EB
:100B6000C8020020D0020020D8020020000C014062
:100B700010B54FF40041284802F005F94FF4004148
:100B8000254802F0FEF84FF48041234802F0F9F8BE
:100B9000022003F043FA002404E02049085D03F03A
:100BA0003DFA641C042CF8DB4FF480411A4802F033
:100BB000EAF80A2001F04AFF4FF48041164802F09B
:100BC000E0F8032003F02AFA002404E01449085D49
:100BD00003F024FA641C042CF8DB4FF480410E4827
:100BE00002F0D1F80A2001F031FF4FF400610A4809
:100BF00002F0C7F80A2001F029FF4FF4006106480F
:100C000002F0C1F80A2001F021FF4FF40061024810
:100C100002F0B7F810BD0000000C0140C002002037
:100C2000C402002070B505464FF480715F4802F0A1
:100C3000A8F880215E4802F0A4F840215C4802F048
:100C4000A0F84FF48061594802F09BF84FF400710E
:100C5000564802F096F84FF40041544802F093F8D9
:100C60004FF40041514802F08CF84FF480414F4856
:100C700002F087F8002003F0D1F9002404E04D4988
:100C8000085D03F0CBF9641C042CF8DB4FF48041C1
:100C9000464802F078F80A2001F0D8FE4FF480416F
:100CA000424802F06EF84FF48041404802F069F883
:100CB000012003F0B3F94048C07828443E49C87089
:100CC000002404E03C49085D03F0A8F9641C042CEE
:100CD000F8DB4FF48041354802F055F80A2001F066
:100CE000B5FE30203449C8704FF480412F4802F0DF
:100CF00048F8022003F092F9002404E02F49085D2F
:100D000003F08CF9641C042CF8DB4FF48041274875
:100D100002F039F80A2001F099FE4FF4804123488F
:100D200002F02FF8032003F079F9002404E02449AD
:100D3000085D03F073F9641C042CF8DB4FF4804168
:100D40001A4802F020F80A2001F080FE4FF480419A
:100D5000164802F016F8072003F060F9002404E0BA
:100D60001849085D03F05AF9641C042CF8DB4FF4B1
:100D700080410E4802F007F80A2001F067FE4FF4A8
:100D800000610A4801F0FDFF0A2001F05FFE4FF408
:100D90000061064801F0F7FF0A2001F057FE4FF40A
:100DA0000061024801F0EDFF70BD0000000C014041
:100DB00000080140DC020020E0020020C002002008
:100DC000C4020020E40200201CB527A000680190A6
:100DD00026A0006800904FF48041254801F0D1FF23
:100DE000002003F01BF9002404E001A9085D03F0D2
:100DF00015F9641C042CF8DB4FF480411C4801F009
:100E0000C2FF0A2001F022FE4FF48041184801F091
:100E1000B8FF012003F002F9002404E01DF80400EB
:100E200003F0FCF8641C042CF8DB4FF480411048FC
:100E300001F0A9FF0A2001F009FE4FF400610C48FF
:100E400001F09FFF0A2001F001FE4FF40061084805
:100E500001F099FF0A2001F0F9FD4FF40061044808
:100E600001F08FFF1CBD000000400300004008207F
:100E7000000C014038B519A0006800904FF4804183
:100E8000174801F07EFF092003F0C8F8002404E0B1
:100E90001DF8040003F0C2F8641C042CF8DB4FF4C6
:100EA00080410F4801F06FFF0A2001F0CFFD4FF4A1
:100EB00000610B4801F065FF0A2001F0C7FD4FF407
:100EC0000061074801F05FFF0A2001F0BFFD4FF409
:100ED0000061034801F055FF38BD00000FFFFFF02F
:100EE000000C01403EB541A00068029040A103C93A
:100EF000CDE900014FF480413F4801F042FF00205E
:100F000003F08CF8002404E002A9085D03F086F8E1
:100F1000641C042CF8DB4FF48041374801F033FFA8
:100F20000A2001F093FD4FF48041334801F029FF7E
:100F30000E2003F073F8002404E01DF8040003F011
:100F40006DF8641C082CF8DB4FF480412A4801F04E
:100F50001AFF0A2001F07AFD4FF40061264801F0E3
:100F600010FF0A2001F072FD4FF40061224801F0E9
:100F70000AFF0A2001F06AFD4FF400611E4801F0EB
:100F800000FF0A2001F062FD4FF480411A4801F091
:100F9000F8FE162003F042F8002405E0174951F846
:100FA000240003F011F8641CB4F5806FF6DB4FF4F5
:100FB0008041114801F0E7FE4FF400610E4801F056
:100FC000E0FE0A2001F042FD4FF400610A4801F002
:100FD000DAFE0A2001F03AFD4FF40061064801F004
:100FE000D0FE0A2001F032FD3EBD000000400000AE
:100FF0000000FFFFC0000000000C0140EC020020D8
:101000003EB529A00068029028A103C9CDE90001DE
:101010004FF48041274801F0B4FE002002F0FEFFAB
:10102000002404E002A9085D02F0F8FF641C042C0F
:10103000F8DB4FF480411F4801F0A5FE0A2001F0C3
:1010400005FD4FF480411B4801F09BFE0E2002F08D
:10105000E5FF002404E01DF8040002F0DFFF641C3B
:10106000082CF8DB4FF48041124801F08CFE0A2076
:1010700001F0ECFC4FF400610E4801F082FE0A2002
:1010800001F0E4FC4FF400610A4801F07CFE0A2004
:1010900001F0DCFC4FF40061064801F072FE0A200A
:1010A00001F0D4FC3EBD0000C040000000FFFFFF87
:1010B000C0000002000C014010B58CB063A00068B5
:1010C0000B9063A103C9CDE9090163A103C9CDE96F
:1010D000070163A103C9CDE9050163A103C9CDE9F6
:1010E000030163A103C9CDE901014FF480416248C6
:1010F00001F047FE002002F091FF002404E00BA95C
:10110000085D02F08BFF641C042CF8DB4FF4804177
:10111000594801F038FE0A2001F098FC4FF4804154
:10112000554801F02EFE0E2002F078FF002404E066
:1011300009A9085D02F072FF641C082CF8DB4FF46B
:1011400080414D4801F01FFE0A2001F07FFC4FF462
:101150008041494801F015FE0F2002F05FFF002496
:1011600004E007A9085D02F059FF641C082CF8DBB5
:101170004FF48041404801F006FE0A2001F066FC71
:101180004FF480413C4801F0FCFD102002F046FF86
:10119000002404E005A9085D02F040FF641C082C4F
:1011A000F8DB4FF48041344801F0EDFD0A2001F0F6
:1011B0004DFC4FF48041304801F0E3FD112002F076
:1011C0002DFF002404E003A9085D02F027FF641C42
:1011D000082CF8DB4FF48041274801F0D4FD0A20A9
:1011E00001F034FC4FF48041234801F0CAFD122085
:1011F00002F014FF002404E001A9085D02F00EFFD4
:10120000641C082CF8DB4FF480411B4801F0BBFD47
:101210000A2001F01BFC4FF40061174801F0B1FDFA
:101220000A2001F013FC4FF40061134801F0ABFDFC
:101230000A2001F00BFC4FF400610F4801F0A1FD02
:101240000A2001F003FC0CB010BD0000804000003B
:1012500000FFFF050000000100FFFF444006000101
:1012600000FFFF82C044800100FFFFC140830001F6
:1012700000FFFFFFC0C18001000C01403EB529A066
:101280000068029028A103C9CDE900014FF4804114
:10129000274801F076FD002002F0C0FE002404E0A3
:1012A00002A9085D02F0BAFE641C042CF8DB4FF4BE
:1012B00080411F4801F067FD0A2001F0C7FB4FF491
:1012C00080411B4801F05DFD0E2002F0A7FE0024C6
:1012D00004E01DF8040002F0A1FE641C082CF8DBF9
:1012E0004FF48041124801F04EFD0A2001F0AEFBA0
:1012F0004FF400610E4801F044FD0A2001F0A6FB06
:101300004FF400610A4801F03EFD0A2001F09EFB07
:101310004FF40061064801F034FD0A2001F096FB0D
:101320003EBD0000A040000000FFFFFFC000000223
:10133000000C01403EB529A00068029028A103C915
:10134000CDE900014FF48041274801F01AFD00204B
:1013500002F064FE002404E002A9085D02F05EFED3
:10136000641C042CF8DB4FF480411F4801F00BFD96
:101370000A2001F06BFB4FF480411B4801F001FD96
:101380000E2002F04BFE002404E01DF8040002F0E1
:1013900045FE641C082CF8DB4FF48041124801F034
:1013A000F2FC0A2001F052FB4FF400610E4801F0FC
:1013B000E8FC0A2001F04AFB4FF400610A4801F002
:1013C000E2FC0A2001F042FB4FF40061064801F004
:1013D000D8FC0A2001F03AFB3EBD0000C0400000EE
:1013E00000FFFFFFC0000003000C01403EB529A034
:1013F0000068029028A103C9CDE900014FF48041A3
:10140000274801F0BEFC002002F008FE002404E0A2
:1014100002A9085D02F002FE641C042CF8DB4FF404
:1014200080411F4801F0AFFC0A2001F00FFB4FF490
:1014300080411B4801F0A5FC0E2002F0EFFD0024C6
:1014400004E01DF8040002F0E9FD641C082CF8DB40
:101450004FF48041124801F096FC0A2001F0F6FAA0
:101460004FF400610E4801F08CFC0A2001F0EEFA06
:101470004FF400610A4801F086FC0A2001F0E6FA08
:101480004FF40061064801F07CFC0A2001F0DEFA0E
:101490003EBD00008040000000FFFFFFC0000003D1
:1014A000000C01403EB529A00068029028A103C9A4
:1014B000CDE900014FF48041274801F062FC002093
:1014C00002F0ACFD002404E002A9085D02F0A6FDD4
:1014D000641C042CF8DB4FF480411F4801F053FCDE
:1014E0000A2001F0B3FA4FF480411B4801F049FC97
:1014F0000E2002F093FD002404E01DF8040002F029
:101500008DFD641C082CF8DB4FF48041124801F07B
:101510003AFC0A2001F09AFA4FF400610E4801F0FB
:1015200030FC0A2001F092FA4FF400610A4801F001
:101530002AFC0A2001F08AFA4FF40061064801F003
:1015400020FC0A2001F082FA3EBD0000A04000000D
:1015500000FFFFFFC0000003000C01403EB529A0C2
:101560000068029028A103C9CDE900014FF4804131
:10157000274801F006FC002002F050FD002404E0A2
:1015800002A9085D02F04AFD641C042CF8DB4FF44C
:1015900080411F4801F0F7FB0A2001F057FA4FF491
:1015A00080411B4801F0EDFB0E2002F037FD0024C6
:1015B00004E01DF8040002F031FD641C082CF8DB87
:1015C0004FF48041124801F0DEFB0A2001F03EFAA0
:1015D0004FF400610E4801F0D4FB0A2001F036FA06
:1015E0004FF400610A4801F0CEFB0A2001F02EFA08
:1015F0004FF40061064801F0C4FB0A2001F026FA0E
:101600003EBD0000E0400000000001FFC0000004FB
:10161000000C01403EB529A00068029028A103C932
:10162000CDE900014FF48041274801F0AAFB0020DA
:1016300002F0F4FC002404E002A9085D02F0EEFCD4
:10164000641C042CF8DB4FF480411F4801F09BFB25
:101650000A2001F0FBF94FF480411B4801F091FB97
:101660000E2002F0DBFC002404E01DF8040002F070
:10167000D5FC641C082CF8DB4FF48041124801F0C3
:1016800082FB0A2001F0E2F94FF400610E4801F0FC
:1016900078FB0A2001F0DAF94FF400610A4801F002
:1016A00072FB0A2001F0D2F94FF40061064801F004
:1016B00068FB0A2001F0CAF93EBD0000804000002E
:1016C00000FFFFFFC0000004000C01403EB529A050
:1016D0000068029028A103C9CDE900014FF48041C0
:1016E000274801F04EFB002002F098FC002404E0A3
:1016F00002A9085D02F092FC641C042CF8DB4FF494
:1017000080411F4801F03FFB0A2001F09FF94FF490
:1017100080411B4801F035FB0E2002F07FFC0024C5
:1017200004E01DF8040002F079FC641C082CF8DBCE
:101730004FF48041124801F026FB0A2001F086F99F
:101740004FF400610E4801F01CFB0A2001F07EF905
:101750004FF400610A4801F016FB0A2001F076F907
:101760004FF40061064801F00CFB0A2001F06EF90D
:101770003EBD0000A040000000FFFFFFC0000004CD
:10178000000C014010B58CB063A000680B9063A101
:1017900003C9CDE9090163A103C9CDE9070163A12B
:1017A00003C9CDE9050163A103C9CDE9030163A123
:1017B00003C9CDE901014FF48041624801F0E1FA2B
:1017C000002002F02BFC002404E00BA9085D02F0CD
:1017D00025FC641C042CF8DB4FF48041594801F0CF
:1017E000D2FA0A2001F032F94FF48041554801F055
:1017F000C8FA0E2002F012FC002404E009A9085DDA
:1018000002F00CFC641C082CF8DB4FF480414D48BE
:1018100001F0B9FA0A2001F019F94FF48041494862
:1018200001F0AFFA0F2002F0F9FB002404E007A951
:10183000085D02F0F3FB641C082CF8DB4FF48041D8
:10184000404801F0A0FA0A2001F000F94FF480416D
:101850003C4801F096FA102002F0E0FB002404E07E
:1018600005A9085D02F0DAFB641C082CF8DB4FF4D4
:101870008041344801F087FA0A2001F0E7F84FF47C
:101880008041304801F07DFA112002F0C7FB0024AE
:1018900004E003A9085D02F0C1FB641C082CF8DB1E
:1018A0004FF48041274801F06EFA0A2001F0CEF88B
:1018B0004FF48041234801F064FA122002F0AEFB9D
:1018C000002404E001A9085D02F0A8FB641C082CB8
:1018D000F8DB4FF480411B4801F055FA0A2001F073
:1018E000B5F84FF40061174801F04BFA0A2001F0F7
:1018F000ADF84FF40061134801F045FA0A2001F0F9
:10190000A5F84FF400610F4801F03BFA0A2001F0FE
:101910009DF80CB010BD0000C040000000FFFF06A5
:101920000000000000FFFF444006000000FFFF82AF
:10193000C044800000FFFFC14083000000FFFFFFA4
:10194000C0C18000000C014010B58CB063A00068DD
:101950000B9063A103C9CDE9090163A103C9CDE9D6
:10196000070163A103C9CDE9050163A103C9CDE95D
:10197000030163A103C9CDE901014FF4804162482D
:1019800001F0FFF9002002F049FB002404E00BA95C
:10199000085D02F043FB641C042CF8DB4FF480412B
:1019A000594801F0F0F90A2001F050F84FF4804155
:1019B000554801F0E6F90E2002F030FB002404E067
:1019C00009A9085D02F02AFB641C082CF8DB4FF41F
:1019D00080414D4801F0D7F90A2001F037F84FF463
:1019E0008041494801F0CDF90F2002F017FB002497
:1019F00004E007A9085D02F011FB641C082CF8DB69
:101A00004FF48041404801F0BEF90A2001F01EF871
:101A10004FF480413C4801F0B4F9102002F0FEFA86
:101A2000002404E005A9085D02F0F8FA641C082C03
:101A3000F8DB4FF48041344801F0A5F90A2001F0A9
:101A400005F84FF48041304801F09BF9112002F075
:101A5000E5FA002404E003A9085D02F0DFFA641C43
:101A6000082CF8DB4FF48041274801F08CF90A205C
:101A700000F0ECFF4FF48041234801F082F912207E
:101A800002F0CCFA002404E001A9085D02F0C6FAD5
:101A9000641C082CF8DB4FF480411B4801F073F9FB
:101AA0000A2000F0D3FF4FF40061174801F069F9F4
:101AB0000A2000F0CBFF4FF40061134801F063F9F6
:101AC0000A2000F0C3FF4FF400610F4801F059F9FC
:101AD0000A2000F0BBFF0CB010BD000080400000E9
:101AE00000FFFF050000000000FFFF44400600006B
:101AF00000FFFF82C044800000FFFFC14083000060
:101B000000FFFFFFC0C18000000C014010B58CB089
:101B100063A000680B9063A103C9CDE9090163A12B
:101B200003C9CDE9070163A103C9CDE9050163A19B
:101B300003C9CDE9030163A103C9CDE901014FF454
:101B40008041624801F01DF9002002F067FA00248C
:101B500004E00BA9085D02F061FA641C042CF8DBB8
:101B60004FF48041594801F00EF90A2000F06EFF51
:101B70004FF48041554801F004F90E2002F04EFA6E
:101B8000002404E009A9085D02F048FA641C082C4E
:101B9000F8DB4FF480414D4801F0F5F80A2000F0E1
:101BA00055FF4FF48041494801F0EBF80F2002F057
:101BB00035FA002404E007A9085D02F02FFA641C3E
:101BC000082CF8DB4FF48041404801F0DCF80A2093
:101BD00000F03CFF4FF480413C4801F0D2F8102067
:101BE00002F01CFA002404E005A9085D02F016FAD0
:101BF000641C082CF8DB4FF48041344801F0C3F832
:101C00000A2000F023FF4FF48041304801F0B9F87A
:101C1000112002F003FA002404E003A9085D02F099
:101C2000FDF9641C082CF8DB4FF48041274801F0D3
:101C3000AAF80A2000F00AFF4FF48041234801F07F
:101C4000A0F8122002F0EAF9002404E001A9085DDE
:101C500002F0E4F9641C082CF8DB4FF480411B48C7
:101C600001F091F80A2000F0F1FE4FF400611748EE
:101C700001F087F80A2000F0E9FE4FF400611348F4
:101C800001F081F80A2000F0E1FE4FF400610F48F6
:101C900001F077F80A2000F0D9FE0CB010BD00006A
:101CA000A040000000FFFF050000000000FFFF440F
:101CB0004006000000FFFF82C044800000FFFFC11B
:101CC0004083000000FFFFFFC0C18000000C014006
:101CD0001FB54FA0006803904EA0006802904EA16F
:101CE00003C9CDE900014FF480414D4801F049F8A6
:101CF000002002F093F9002404E003A9085D02F03B
:101D00008DF9641C042CF8DB4FF48041444801F049
:101D10003AF80A2000F09AFE4FF48041404801F062
:101D200030F8012002F07AF9002404E002A9085DED
:101D300002F074F9641C042CF8DB4FF4804138483D
:101D400001F021F80A2000F081FE4FF48041344870
:101D500001F017F80E2002F061F9002404E01DF8EC
:101D6000040002F05BF9641C082CF8DB4FF480419E
:101D70002B4801F008F80A2000F068FE4FF40061DB
:101D8000274800F0FEFF0A2000F060FE4FF40061DB
:101D9000234800F0F8FF0A2000F058FE4FF40061DD
:101DA0001F4800F0EEFF0A2000F050FE4FF4804183
:101DB0001B4800F0E6FF162002F030F9002405E091
:101DC000184951F8240002F0FFF8641CB4F5806F44
:101DD000F6DB4FF48041124800F0D5FF4FF400616C
:101DE0000F4800F0CEFF0A2000F030FE4FF40061F3
:101DF0000B4800F0C8FF0A2000F028FE4FF40061F5
:101E0000074800F0BEFF0A2000F020FE1FBD0000C2
:101E1000004000000040082000FFFFFFC00000005D
:101E2000000C0140EC3200201FB535A00068039083
:101E300034A00068029034A103C9CDE900014FF439
:101E40008041334800F09DFF002002F0E7F80024B5
:101E500004E003A9085D02F0E1F8641C042CF8DB3F
:101E60004FF480412A4800F08EFF0A2000F0EEFD7A
:101E70004FF48041264800F084FF012002F0CEF8A4
:101E8000002404E002A9085D02F0C8F8641C042CD8
:101E9000F8DB4FF480411E4800F075FF0A2000F087
:101EA000D5FD4FF480411A4800F06BFF0E2002F080
:101EB000B5F8002404E01DF8040002F0AFF8641C3B
:101EC000082CF8DB4FF48041114800F05CFF0A2039
:101ED00000F0BCFD4FF400610D4800F052FF0A20F5
:101EE00000F0B4FD4FF40061094800F04CFF0A20F7
:101EF00000F0ACFD4FF40061054800F042FF1FBD4B
:101F000000400000014008203FFF000000000000EA
:101F1000000C01403EB541A00068029040A103C9F9
:101F2000CDE900014FF480413F4800F02AFF002036
:101F300002F074F8002404E002A9085D02F06EF8D3
:101F4000641C042CF8DB4FF48041374800F01BFF81
:101F50000A2000F07BFD4FF48041334800F011FF70
:101F60000E2002F05BF8002404E01DF8040002F0EB
:101F700055F8641C082CF8DB4FF480412A4800F027
:101F800002FF0A2000F062FD4FF40061264800F0D5
:101F9000F8FE0A2000F05AFD4FF40061224800F0DC
:101FA000F2FE0A2000F052FD4FF400611E4800F0DE
:101FB000E8FE0A2000F04AFD4FF480411A4800F084
:101FC000E0FE162002F02AF8002405E0174951F837
:101FD000240001F0F9FF641CB4F5806FF6DB4FF4C8
:101FE0008041114800F0CFFE4FF400610E4800F030
:101FF000C8FE0A2000F02AFD4FF400610A4800F0F4
:10200000C2FE0A2000F022FD4FF40061064800F0F5
:10201000B8FE0A2000F01AFD3EBD0000004000009E
:1020200000FFFFFFC0000000000C0140EC42002058
:1020300010B58CB063A000680B9063A103C9CDE913
:10204000090163A103C9CDE9070163A103C9CDE972
:10205000050163A103C9CDE9030163A103C9CDE96A
:1020600001014FF48041624800F08BFE002001F036
:10207000D5FF002404E00BA9085D01F0CFFF641C2C
:10208000042CF8DB4FF48041594800F07CFE0A2014
:1020900000F0DCFC4FF48041554800F072FE0E2049
:1020A00001F0BCFF002404E009A9085D01F0B6FFBF
:1020B000641C082CF8DB4FF480414D4800F063FEAF
:1020C0000A2000F0C3FC4FF48041494800F059FE5B
:1020D0000F2001F0A3FF002404E007A9085D01F030
:1020E0009DFF641C082CF8DB4FF48041404800F051
:1020F0004AFE0A2000F0AAFC4FF480413C4800F060
:1021000040FE102001F08AFF002404E005A9085DCC
:1021100001F084FF641C082CF8DB4FF48041344844
:1021200000F031FE0A2000F091FC4FF4804130486D
:1021300000F027FE112001F071FF002404E003A944
:10214000085D01F06BFF641C082CF8DB4FF4804144
:10215000274800F018FE0A2000F078FC4FF4804178
:10216000234800F00EFE122001F058FF002404E086
:1021700001A9085D01F052FF641C082CF8DB4FF444
:1021800080411B4800F0FFFD0A2000F05FFC4FF487
:102190000061174800F0F5FD0A2000F057FC4FF4ED
:1021A0000061134800F0EFFD0A2000F04FFC4FF4EF
:1021B00000610F4800F0E5FD0A2000F047FC0CB07C
:1021C00010BD0000C040000000FFFF05000000013E
:1021D00000FFFF444006000100FFFF82C044800171
:1021E00000FFFFC14083000100FFFFFFC0C180016D
:1021F000000C014010B58CB063A000680B9063A187
:1022000003C9CDE9090163A103C9CDE9070163A1B0
:1022100003C9CDE9050163A103C9CDE9030163A1A8
:1022200003C9CDE901014FF48041624800F0A9FDE6
:10223000002001F0F3FE002404E00BA9085D01F08A
:10224000EDFE641C042CF8DB4FF48041594800F08B
:102250009AFD0A2000F0FAFB4FF48041554800F047
:1022600090FD0E2001F0DAFE002404E009A9085DCB
:1022700001F0D4FE641C082CF8DB4FF480414D487B
:1022800000F081FD0A2000F0E1FB4FF48041494855
:1022900000F077FD0F2001F0C1FE002404E007A943
:1022A000085D01F0BBFE641C082CF8DB4FF4804194
:1022B000404800F068FD0A2000F0C8FB4FF4804160
:1022C0003C4800F05EFD102001F0A8FE002404E070
:1022D00005A9085D01F0A2FE641C082CF8DB4FF490
:1022E0008041344800F04FFD0A2000F0AFFB4FF46E
:1022F0008041304800F045FD112001F08FFE0024A0
:1023000004E003A9085D01F089FE641C082CF8DBD9
:102310004FF48041274800F036FD0A2000F096FB7C
:102320004FF48041234800F02CFD122001F076FE8E
:10233000002404E001A9085D01F070FE641C082C73
:10234000F8DB4FF480411B4800F01DFD0A2000F02F
:102350007DFB4FF40061174800F013FD0A2000F0E8
:1023600075FB4FF40061134800F00DFD0A2000F0EA
:102370006DFB4FF400610F4800F003FD0A2000F0F0
:1023800065FB0CB010BD00008040000000FFFF05A1
:102390000000000100FFFF444006000100FFFF8233
:1023A000C044800100FFFFC14083000100FFFFFF28
:1023B000C0C18001000C014010B58CB063A0006862
:1023C0000B9063A103C9CDE9090163A103C9CDE95C
:1023D000070163A103C9CDE9050163A103C9CDE9E3
:1023E000030163A103C9CDE901014FF480416248B3
:1023F00000F0C7FC002001F011FE002404E00BA94E
:10240000085D01F00BFE641C042CF8DB4FF48041E6
:10241000594800F0B8FC0A2000F018FB4FF4804146
:10242000554800F0AEFC0E2001F0F8FD002404E059
:1024300009A9085D01F0F2FD641C082CF8DB4FF4DB
:1024400080414D4800F09FFC0A2000F0FFFA4FF455
:102450008041494800F095FC0F2001F0DFFD002489
:1024600004E007A9085D01F0D9FD641C082CF8DB25
:102470004FF48041404800F086FC0A2000F0E6FA64
:102480004FF480413C4800F07CFC102001F0C6FD78
:10249000002404E005A9085D01F0C0FD641C082CBF
:1024A000F8DB4FF48041344800F06DFC0A2000F066
:1024B000CDFA4FF48041304800F063FC112001F068
:1024C000ADFD002404E003A9085D01F0A7FD641C34
:1024D000082CF8DB4FF48041274800F054FC0A2018
:1024E00000F0B4FA4FF48041234800F04AFC122077
:1024F00001F094FD002404E001A9085D01F08EFDC7
:10250000641C082CF8DB4FF480411B4800F03BFCB6
:102510000A2000F09BFA4FF40061174800F031FCEC
:102520000A2000F093FA4FF40061134800F02BFCEE
:102530000A2000F08BFA4FF400610F4800F021FCF4
:102540000A2000F083FA0CB010BD0000A048000083
:1025500000FFFF050000000100FFFF4440060001EE
:1025600000FFFF82C044800100FFFFC140830001E3
:1025700000FFFFFFC0C18001000C01401CB527A077
:102580000068019026A0006800904FF48041254823
:1025900000F0F7FB002001F041FD002404E001A958
:1025A000085D01F03BFD641C042CF8DB4FF4804116
:1025B0001C4800F0E8FB0A2000F048FA4FF4804184
:1025C000184800F0DEFB012001F028FD002404E0A3
:1025D0001DF8040001F022FD641C042CF8DB4FF40C
:1025E0008041104800F0CFFB0A2000F02FFA4FF492
:1025F00000610C4800F0C5FB0A2000F027FA4FF4F8
:102600000061084800F0BFFB0A2000F01FFA4FF4F9
:102610000061044800F0B5FB1CBD00000040000054
:1026200000410820000C01402DE9F84F824627A008
:10263000006800905046FDF709FE0746244A254BE6
:10264000FDF792FD0546FDF70EFE0446E0B28DF85B
:102650000300200A8DF80200200C8DF80100200EE6
:102660008DF800004FF480411B4800F08AFB0720E2
:1026700001F0D4FC4FF0000905E01DF8090001F05D
:10268000CDFC09F10109B9F1040FF6DB4FF48041EB
:10269000114800F078FB0A2000F0D8F94FF40061EF
:1026A0000D4800F06EFB0A2000F0D0F94FF40061F5
:1026B000094800F068FB0A2000F0C8F94FF40061F7
:1026C000054800F05EFBBDE8F88F00000000A7C6DB
:1026D00095D626E80B2E1140000C01401CB527A012
:1026E0000068019026A0006800904FF480412548C2
:1026F00000F047FB002001F091FC002404E001A958
:10270000085D01F08BFC641C042CF8DB4FF4804165
:102710001C4800F038FB0A2000F098F94FF4804183
:10272000184800F02EFB012001F078FC002404E0A2
:102730001DF8040001F072FC641C042CF8DB4FF45B
:102740008041104800F01FFB0A2000F07FF94FF491
:1027500000610C4800F015FB0A2000F077F94FF4F7
:102760000061084800F00FFB0A2000F06FF94FF4F9
:102770000061044800F005FB1CBD000000400000A3
:1027800001400820000C01402DE9F04F85B00746BC
:10279000884691469A464046FDF758FD374A384BE1
:1027A000CDE90001FDF7E0FCCDE90201FDF75BFD9D
:1027B00005465046FDF74AFD324A334BCDE900014C
:1027C000FDF7D2FCCDE90201FDF74DFD0490CB46AB
:1027D000082F15D2DFE807F00406080A0C0E1012C5
:1027E0000E240EE00F240CE010240AE0112408E06F
:1027F000122406E0132404E0142402E0152400E06F
:1028000000BF00BF2149CD71280A8871280C48718A
:10281000280E08710498C8700498000A887081F81E
:1028200001B04FEA1B2008704FF48041184800F0B7
:10283000A8FA204601F0F2FB002604E01349885D67
:1028400001F0ECFB761C082EF8DB4FF480411048B9
:1028500000F099FA0A2000F0F9F84FF400610C48F2
:1028600000F091FA0A2000F0F1F84FF400610848F6
:1028700000F087FA05B0BDE8F08F000095D626E895
:102880000B2E1140012FC1166CC16640B80200200A
:10289000000C01403EB5054649A00068029049A1E0
:1028A00003C9CDE900014FF48041484800F069FABE
:1028B000002001F0B3FB002404E002A9085D01F050
:1028C000ADFB641C042CF8DB4FF480413F4800F062
:1028D0005AFA0A2000F0BAF84FF480413B4800F061
:1028E00050FA0E2001F09AFB002404E01DF80400C9
:1028F00001F094FB641C082CF8DB4FF48041334852
:1029000000F041FA0A2000F0A1F84FF400612F48CE
:1029100000F037FA0A2000F099F84FF400612B48D4
:1029200000F031FA0A2000F091F84FF400612748D6
:1029300000F027FA0A2000F089F84FF4804123487C
:1029400000F01FFA162001F069FB002417E0012DAA
:1029500005D11F4951F8240001F036FB0EE0022D8D
:1029600005D11C4951F8240001F02EFB06E0032D8F
:1029700004D1194951F8240001F026FB641CB4F578
:10298000806FE4DB4FF48041104800F0FCF94FF415
:1029900000610E4800F0F5F90A2000F057F84FF4F6
:1029A00000610A4800F0EFF90A2000F04FF84FF4F8
:1029B0000061064800F0E5F90A2000F047F83EBD46
:1029C00060400000000001FFC0000000000C01405A
:1029D000EC020020EC120020EC22002000BF772146
:1029E00000BF432200BF531E9BB21A1EFBD14B1ED9
:1029F0009BB2191EF5D1431EDBB2181EEFD17047F2
:102A000000BF422100BF1E2200BF531EDBB21A1EB0
:102A1000FBD14B1EDBB2191EF5D1431EDBB2181ED3
:102A2000EFD1704700BF4FF47A7100BF40F201222E
:102A300000BF531E9BB21A1EFBD14B1E9BB2191E28
:102A4000F4D1431EDBB2181EEDD1704700BF411E0A
:102A5000C9B2081EFBD1704751B18200A2F1C04239
:102A6000126842F001038200A2F1C042136009E043
:102A70008200A2F1C0421268034B1A408300A3F106
:102A8000C0431A6070470000FEFF0F00D0E901123A
:102A90001143C268114302691143426911438269BB
:102AA0001143C2691143026A1143426A1143826AA7
:102AB0001143C26A1143026B114302689200A2F1F2
:102AC000C0421160816808290BD101688900A1F119
:102AD000C041096841F0400201688900A1F1C0418C
:102AE0000A60416B0968426B526841EA0211426B0D
:102AF000926841EA0221426B928941EA0241426BAB
:102B0000128A41EA0251426B127D41EA0261426B34
:102B1000926911430268521C9200A2F1C0421160F6
:102B2000C16AB1F5804F1BD1816B0968826B526815
:102B300041EA0211826B926841EA0221826B128A99
:102B400041EA0251826B127D41EA0261826B926915
:102B5000114302689200A2F1C042C2F8041107E0DA
:102B60006FF0704201688900A1F1C041C1F80421F1
:102B7000704700002DE9F04781464846FDF766FBA7
:102B80000746094A094BFDF7EFFA0546FDF76BFBCF
:102B900004460749CC70200A8870200C4870200E2B
:102BA0000870BDE8F087000095D626E80B2E11408E
:102BB000E40200202DE9F041024600250026002015
:102BC00000230024002791F803C00CF00F0591F8B2
:102BD00003C00CF0100CBCF1000F03D091F802C040
:102BE0004CEA050591F800C0BCF1000F31D0146823
:102BF00000202BE04FF0010C0CFA00F3B1F800C0FC
:102C00000CEA03069E4220D183004FF00F0C0CFA11
:102C100003F7BC4305FA03FC4CEA040491F803C033
:102C2000BCF1280F06D14FF0010C0CFA00FCC2F8E1
:102C300014C00AE091F803C0BCF1480F05D14FF071
:102C4000010C0CFA00FCC2F810C0401C0828D1D3BB
:102C50001460B1F800C0BCF1FF0F34DD54680020EF
:102C60002EE000F1080C4FF0010808FA0CF3B1F85F
:102C700000C00CEA03069E4221D183004FF00F0CE6
:102C80000CFA03F7BC4305FA03FC4CEA040491F880
:102C900003C0BCF1280F05D100F1080C08FA0CF8AC
:102CA000C2F8148091F803C0BCF1480F07D100F1BD
:102CB000080C4FF0010808FA0CF8C2F81080401C0C
:102CC0000828CED35460BDE8F081000008B501218A
:102CD000082001F02DF80121042001F029F801213C
:102CE000402001F025F80121102001F021F84FF4D7
:102CF0007F40ADF8000010208DF8030003208DF810
:102D0000020069461548FFF755FFC020ADF80000E6
:102D100010208DF8030003208DF80200694610484A
:102D2000FFF748FF3F20ADF8000010208DF80300AA
:102D300003208DF8020069460948FFF73BFF43F680
:102D4000FF70ADF8000010208DF8030003208DF80F
:102D5000020069460348FFF72DFF08BD000C014043
:102D600000080140001001400246002093680B401B
:102D70000BB1012000E0002070470146C86880B216
:102D800070474161704701617047000030B50246ED
:102D9000144800680489002120E012480068006897
:102DA00001EB811510F815001578A84214D10D48D3
:102DB0000068006801EB811500EB4500407855780C
:102DC000A84209D107480068006801EB811500EBB3
:102DD0004500831C184630BD481C81B2A142DCDB93
:102DE0000020F8E73053002008B50121402000F012
:102DF0009FFF0F20ADF8000048208DF8030003204E
:102E00008DF8020069460248FFF7D4FE08BD0000B5
:102E10000018014010B5002401212748FFF7A4FF46
:102E200078B102212448FFF79FFF50B104212248C6
:102E3000FFF79AFF28B108211F48FFF795FF0028E8
:102E400037D10A20FFF7CAFD01211B48FFF78CFF8D
:102E500038B9012400BF01211748FFF785FF00287A
:102E6000F9D002211448FFF77FFF38B9022400BFD0
:102E700002211148FFF778FF0028F9D004210E48FD
:102E8000FFF772FF38B9032400BF04210A48FFF797
:102E90006BFF0028F9D008210748FFF765FF48B904
:102EA000042400BF08210448FFF75EFF0028F9D082
:102EB00000E00024204610BD0018014070B5044613
:102EC00000250B48038842880021084600F0DEFCFC
:102ED00000F0F6FD00BF02E0064804806D1C0448C7
:102EE0000088034949884843A842F5D870BD0000CE
:102EF000385300200000026008B50121602000F076
:102F000017FF4CF6B370ADF8000003208DF80200F7
:102F100018208DF8030069461248FFF74BFE4FF664
:102F20008070ADF8000003208DF8020018208DF8A5
:102F3000030069460C48FFF73DFE4FF44050ADF8E2
:102F4000000003208DF8020010208DF80300694670
:102F50000448FFF72FFE4FF400510248FFF713FF1C
:102F600008BD000000140140001801402DE9F041A7
:102F700005460E461446A4F120010C4A1268D28878
:102F800051430A4A12689288D01DC21700EB527250
:102F9000D210064B1B681B6801FB02373A463146CC
:102FA000284600F0FBF8BDE8F08100002C5300201B
:102FB0002DE9F04105460E46144600272046FFF74E
:102FC000E5FE07463A463146284600F035F9BDE8A9
:102FD000F08100002DE9F04106460F4614463546C3
:102FE000B84629E017480088174909688988401AB7
:102FF000A8421ADB207880280BDA2278414628463E
:10300000FFF7B4FF104800688088284485B2641C2C
:1030100012E0224641462846FFF7CAFF0B480068E7
:103020008088284485B2A41C06E000250648006874
:10303000C08840441FFA80F820780028D2D1BDE82B
:10304000F0810000385300202C5300203053002022
:1030500051490871032826D14FF4A0714E4A1180BE
:10306000F02151801146098948F25252914209D10A
:103070002C21494A51812A2191812B21D181602122
:10308000D18088E04449098945F208429142F8D14B
:103090002221414A5181202191812121D18141F276
:1030A0000801D18077E0042826D14FF4A0713A4A74
:1030B0001180F02151801146098948F25252914203
:1030C00009D12C21344A51812A2191812B21D1818E
:1030D000A021D1805FE03049098945F20842914240
:1030E00059D122212C4A5181202191812121D18144
:1030F00041F23801D1804EE0012826D1F021264A44
:1031000011804FF4A07151801146098948F2525242
:10311000914209D12C21204A51812A2191812B21D0
:10312000D181C021D18036E01B49098945F208428E
:10313000914230D12221184A5181202191812121AF
:10314000D1814FF48151D18025E0F021124A1180C4
:103150004FF4A07151801146098948F252529142B0
:1031600009D12C210C4A51812A2191812B21D18115
:103170000021D1800FE00849098945F208429142B7
:1031800009D12221044A5181202191812121D1811B
:1031900041F21001D1807047385300202DE9F047EB
:1031A000074688461646002500241F480068808888
:1031B000C01DC0F3C7091C48006883881A4800680E
:1031C000C2884146384600F061FB00F079FC00BF40
:1031D0001CE0002414E005FB09F000EBD400305C97
:1031E00004F0070280211141084020B90F480088EF
:1031F00000F060FC03E00E48008800F05BFC641CFB
:10320000094800688088A042E5D86D1C064800681F
:10321000C088A842DDD807480388428800210846B4
:1032200000F034FBBDE8F0872C530020365300201B
:1032300034530020385300202DE9F04707468846D4
:10324000154600260024254800688088C01DC0F36C
:10325000C70922480068838820480068C288414620
:10326000384600F013FB00F02BFC00BF28E00024E0
:103270001FE0C5B106FB09F101EBE401695CE2174F
:1032800004EB5272D210A4EBC20380221A41114007
:1032900021B91348008800F00DFC08E011480088AF
:1032A00000F008FC03E00E48008800F003FC601CFE
:1032B00084B20A4800688088A042DADC701C86B2BA
:1032C00006480068C088B042D1DC074803884288BD
:1032D0000021084600F0DAFABDE8F08730530020FC
:1032E00036530020345300203853002000B597B0E7
:1032F0000121080200F00CFD0121084600F018FD34
:1033000002200190002002900520039000200490EC
:10331000059006904FF0805007900020089009908B
:1033200008200A9010200B9000200C900E900F9017
:1033300010904FF480501190002012901390149030
:1033400001A81590169008A8FFF7A0FB0121002006
:10335000FFF782FB17B000BD10B5FFF7CDFDFFF7FB
:10336000C5FF0A20FFF73AFB4FF48051FE48FFF7F4
:1033700008FD0A20FFF732FB4FF48051FA48FFF7AF
:1033800002FD0A20FFF72AFB042000F035FA00F0C6
:103390002DFAF649088100F029FAF4490881084617
:1033A00000894FF6FF7101EA0020F049088100F022
:1033B0001DFAEE4909890843EC490881084600894D
:1033C00048F25251884204D0002000F015FAE74933
:1033D0000881E648008948F2525188427ED1112086
:1033E00000F02CFB7820FFF7F9FA362000F026FBDE
:1033F000002000F01DFB3A2000F020FB052000F02B
:1034000017FBB22000F01AFB0C2000F011FB0C207F
:1034100000F00EFB002000F00BFB332000F008FB57
:10342000332000F005FBB72000F008FB352000F04A
:10343000FFFABB2000F002FB282000F0F9FAC020C0
:1034400000F0FCFA2C2000F0F3FAC22000F0F6FAAB
:10345000012000F0EDFAC32000F0F0FA0B2000F09C
:10346000E7FAC42000F0EAFA202000F0E1FAC620D2
:1034700000F0E4FA0F2000F0DBFAD02000F0DEFAD2
:10348000A42000F0D5FAA12000F0D2FAE02000F04C
:10349000D5FAD02000F0CCFA012000F0C9FA0820BB
:1034A00000F0C6FA0F2000F0C3FA112000F0C0FAB5
:1034B0002A2000F0BDFA362000F0BAFA552000F0BC
:1034C000B7FA442000F0B4FA3A2000F0B1FA0B2029
:1034D00000F0AEFA062000F0ABFA00E04AE011205E
:1034E00000F0A6FA202000F0A3FAE12000F0A6FAEE
:1034F000D02000F09DFA022000F09AFA072000F098
:1035000097FA0A2000F094FA0B2000F091FA1820A4
:1035100000F08EFA342000F08BFA432000F088FA95
:103520004A2000F085FA2B2000F082FA1B2000F0E0
:103530007FFA1C2000F07CFA222000F079FA1F208C
:1035400000F076FA292000F079FA2C2000F076FAC3
:103550000320FFF77DFD362000F070FA8349C8880C
:1035600000F066FA8148038842880021084600F08E
:103570008DF928E17D48008945F208418842F8D15B
:103580004FF48071012000F0A5FA4FF4E0610220B1
:1035900000F0A0FA41F23001032000F09BFA002174
:1035A000042000F097FA40F20221082000F092FA7D
:1035B0000021092000F08EFA00210A2000F08AFA8A
:1035C00000210C2000F086FA00210D2000F082FA84
:1035D00000210F2000F07EFA0021102000F07AFA7E
:1035E0000021112000F076FA0021122000F072FA7A
:1035F0000021132000F06EFAC820FFF7EFF9072131
:10360000112000F067FA3220FFF7E8F941F2B0210B
:10361000102000F05FFA3220FFF7E0F940F2BD1110
:10362000122000F057FA3220FFF7D8F94FF4A051DA
:10363000132000F04FFA0E21292000F04BFA32201F
:10364000FFF7CCF90021202000F044FA40F23F11AE
:10365000212000F03FFA40F60D31302000F03AFA18
:1036600041F62311312000F035FA41F6264132208F
:1036700000F030FA42F21C61332000F02BFA42F2E3
:103680001941342000F026FA40F60B51352000F0A5
:1036900021FA41F20601362000F01CFA4FF4C26113
:1036A000372000F017FA40F20671382000F012FAC5
:1036B0004FF44171392000F00DFA40F605613A20CF
:1036C00000F008FA40F601613B2000F003FA4FF4E5
:1036D00087713C2000F0FEF940F20E513D2000F0D1
:1036E000F9F940F203413E2000F0F4F940F207619D
:1036F0003F2000F0EFF90021502000F0EBF9EF211E
:10370000512000F0E7F90021522000F0E3F940F2E7
:103710003F11532000F0DEF94FF42741602000F004
:10372000D9F90121612000F0D5F900216A2000F0CB
:10373000D1F90021802000F0CDF90021812000F096
:10374000C9F90021822000F0C5F90021832000F092
:10375000C1F90021842000F0BDF90021852000F08E
:10376000B9F91021902003E00014014038530020E3
:1037700000F0B0F90021922000F0ACF90321932071
:1037800000F0A8F94FF48871952000F0A3F900210A
:10379000972000F09FF90021982000F09BF903206A
:1037A000FFF756FC0D48C188032000F093F94FF451
:1037B0008971072000F08EF90848038842880021AB
:1037C000084600F063F80649064800F027F94FF470
:1037D00000510548FFF7D5FA10BD0000385300200E
:1037E000205300200C5300200014014001480088A1
:1037F0007047000000000260014602480180801C02
:1038000000887047FEFF016003B5BDF80000034962
:103810000880BDF80400024908800CBD3453002024
:103820003653002010B503460C461748008948F26D
:103830005251884215D114498989C8B200F0FEF866
:10384000181200F0F5F8D8B200F0F2F80E49C98964
:10385000C8B200F0F3F8201200F0EAF8E0B200F08D
:10386000E7F80948008945F2084188420BD106492A
:103870008989C8B2194600F02DF90349C989C8B22F
:10388000214600F027F910BD385300202DE9FC5FD8
:1038900004460D46904699460026B2460027B34698
:1038A0000020019000905C48008948F25251884203
:1038B00034D1264604EB0900401E1FFA80FA2F4639
:1038C00005EB0800401E1FFA80FB01960097524945
:1038D0008989C8B200F0B2F8301200F0A9F8F0B24D
:1038E00000F0A6F84FEA2A2000F0A2F80AF0FF0044
:1038F00000F09EF84849C989C8B200F09FF8381214
:1039000000F096F8F8B200F093F84FEA2B2000F0A0
:103910008FF80BF0FF0000F08BF877E03E4800894D
:1039200045F20841884271D13B48007903281CD1F7
:1039300039484088401BA0EB080086B236484088D2
:10394000401B401E1FFA80FA33480088001BA0EB82
:10395000090087B230480088001B401E1FFA80FB18
:10396000CDF804A0CDF800B040E02B480079042841
:103970000ED12E4605EB0800401E1FFA80FA27469E
:1039800004EB0900401E1FFA80FB019600972DE012
:1039900021480079012814D11F480088001BA0EBA2
:1039A000090086B21C480088001B401E1FFA80FADE
:1039B0002F4605EB08001FFA80FBCDF804A0009706
:1039C00014E0264604EB0900401E1FFA80FA124854
:1039D0004088401BA0EB080087B20F484088401B7E
:1039E000401E1FFA80FB0196CDF800B031465020F2
:1039F00000F070F85146512000F06CF83946522022
:103A000000F068F85946532000F064F8DDE9001032
:103A1000FFF708FFBDE8FC9F38530020024A106002
:103A2000024A1160704700002C53002030530020E0
:103A300001490880704700000000026001490880C9
:103A400070470000FEFF01602DE9FC4104460D4671
:103A500016461F46DDF82080424607A101A800F067
:103A600007FB01A83B46324629460090204600F05D
:103A700039F8BDE8FC810000256400002DE9FF4114
:103A800005460E46174698460A9C2246002307A183
:103A900001A800F0EDFA01A843463A4631460090ED
:103AA000284600F01FF8BDE8FF810000256C6C641B
:103AB000000000000149088070470000000002601B
:103AC00002484089024908807047000038530020AE
:103AD000FEFF0160024A1080921C118070470000B6
:103AE000FEFF01602DE9F04106460F4614461D46D3
:103AF000DDF8188029462046FFF786FE4246394603
:103B00003046FFF767FABDE8F08100002DE9F04785
:103B10008CB081468A465046FCF798FB0746744AAB
:103B2000744BFCF721FB0546FCF79DFB84B24FF478
:103B300000417148FFF725F94FF400416E48FFF747
:103B400022F909F001004FF6FF7101EA4010ADF8CB
:103B50000A0009F0020001EAC000ADF80C00BDF84F
:103B60000A00BDF80C10084480B2ADF800006248AD
:103B7000FFF703F9ADF80800BDF8000000F03000D1
:103B8000BDF808104FF6CF72114008435A490C3166
:103B9000086004F001004FF6FF7101EAC000ADF8C3
:103BA0000A0004F0020001EA4000ADF80C0004F045
:103BB00004004010ADF80E00C4F3C000ADF81000D2
:103BC00004F0100001EA4000ADF8120004F02000FB
:103BD0004010ADF8140004F04000C010ADF816001D
:103BE00004F080004011ADF8180004F48070C0119A
:103BF000ADF81A00C4F34020ADF81C0004F4806056
:103C00008010ADF81E0004F400608010ADF82000B4
:103C100004F480508010ADF8220004F400508010AD
:103C2000ADF8240004F480408010ADF8260004F4C0
:103C300000408010ADF82800BDF80A00BDF80C1057
:103C40000844BDF80E100844BDF81010084480B2B6
:103C5000ADF80000BDF81200BDF814100844BDF81E
:103C600016100844BDF818100844BDF81A1008448E
:103C7000BDF81C100844BDF81E100844BDF8201003
:103C80000844BDF822100844BDF824100844BDF8CB
:103C900026100844BDF82810084480B2ADF8020090
:103CA0001548FFF76AF8ADF80800BDF8000000F00D
:103CB0000F00BDF808104FF6F072114008430E498E
:103CC0000C3108600D48FFF758F8ADF80800BDF852
:103CD000020043F63F710840BDF808104CF2C002E4
:103CE000114008430549C8600CB0BDE8F0870000EA
:103CF00095D626E80B2E1140000801400010014027
:103D000010B5FEF7E3FFFFF76FF8FFF725FB10BDD7
:103D100029B1064A52690243044B5A6104E0034A3E
:103D200052698243014B5A61704700000010024003
:103D300029B1064A92690243044B9A6104E0034A9E
:103D400092698243014B9A61704700000010024063
:103D500010B500F001F810BD0CB5002001900090E6
:103D60003348006840F480303149086000BF304873
:103D7000006800F4003000900198401C0190009809
:103D800018B90198B0F5A06FF1D12948006800F486
:103D9000003010B10120009001E000200090009858
:103DA000012843D12348006840F0100021490860F1
:103DB0000846006820F0030008600846006840F0EC
:103DC000020008601A48406819494860084640687F
:103DD00048600846406840F4806048600846406893
:103DE00020F47C1048600846406840F4E8104860C1
:103DF0000846006840F08070086000BF0C4800680A
:103E000000F000700028F9D00948406820F0030055
:103E1000074948600846406840F00200486000BF1B
:103E20000348406800F00C000828F9D10CBD0000E0
:103E3000001002400020024010B50446082C76D243
:103E4000DFE804F00412202E3C4A58664021444822
:103E5000FEF797FF80214248FEF793FF4FF48071F1
:103E60004048FEF78EFF63E040213D48FEF789FFA2
:103E700080213B48FEF785FF4FF480713948FEF7FB
:103E800082FF55E040213648FEF77BFF8021344811
:103E9000FEF779FF4FF480713248FEF772FF47E07A
:103EA00040212F48FEF76DFF80212D48FEF76BFF64
:103EB0004FF480712B48FEF766FF39E04021284817
:103EC000FEF761FF80212648FEF75BFF4FF480710B
:103ED0002448FEF756FF2BE040212148FEF753FF10
:103EE00080211F48FEF74DFF4FF480711D48FEF7FB
:103EF0004AFF1DE040211A48FEF745FF802118487F
:103F0000FEF741FF4FF480711648FEF73AFF0FE0CD
:103F100040211348FEF737FF80211148FEF733FF99
:103F20004FF480710F48FEF72EFF01E0FFE700BF5E
:103F300000BF4FF400610B48FEF723FF0A20FEF795
:103F400085FD4FF400610748FEF71DFF0A20FEF7CC
:103F50007DFD4FF400610348FEF713FF10BD000024
:103F600000080140000C014010B51348006840F003
:103F700001001149086008464068104908400E4990
:103F80004860084600680E4908400B49086008462A
:103F9000006820F4802008600846406820F4FE0095
:103FA00048604FF41F008860FFF7D2FE4FF00060BA
:103FB0000449086010BD0000001002400000FFF836
:103FC000FFFFF6FE08ED00E070B506464FF0004535
:103FD000A90C1148FEF7D5FE00241AE006EA0500F8
:103FE00028B94FF480510C48FEF7CBFE04E04FF4A3
:103FF00080510948FEF7C7FE4FF400510648FEF70E
:10400000C2FE6D084FF400510348FEF7BAFE601C73
:10401000C4B2202CE2DB70BD000C014070B5064636
:104020008025A9011148FEF7ACFE00241AE006EA3B
:10403000050028B94FF480510C48FEF7A2FE04E0B9
:104040004FF480510948FEF79EFE4FF40051074897
:10405000FEF799FE6D104FF400510448FEF791FEF3
:10406000601CC4B2082CE2DB70BD0000000C0140F3
:104070000FB4084B10B504A902AA039800F01CF86D
:10408000044602A9002000F0DAF9204610BC5DF8D1
:1040900014FB00003F44000802E008C8121F08C1DA
:1040A000002AFAD170477047002001E001C1121FB9
:1040B000002AFBD1704700002DE9FF4F8BB00F465F
:1040C0000546002606E025280BD0DDE90D129047B5
:1040D0006D1C761C28780028F5D10FB03046BDE85D
:1040E000F08F0024A146A3460122BF4900E004430B
:1040F00015F8013F203B02FA03F00842F7D1287877
:104100002A2810D06FF02F022878A0F13001092959
:1041100014D809EB890102EB410144F0020400EBE1
:1041200001096D1CF0E701CF5FEA000903D544F4F3
:104130000054C9F1000944F002046D1C28782E28AF
:1041400017D115F8010F44F004042A280ED06FF09F
:104150002F022878A0F1300109290AD80BEB8B0136
:1041600002EB410100EB010B6D1CF2E757F804BBB9
:104170006D1C28786C280FD006DC4C2817D06828D6
:104180000DD06A2814D104E0742810D07A280FD1F9
:104190000DE044F400140AE044F4801401E044F417
:1041A00040146978814202D104F580146D1C6D1CA5
:1041B0002878692866D006DC00288ED0632822D0B3
:1041C000642806D15EE06E2808D0732825D07528B3
:1041D0007CD0DDE90D129047761C02E1C4F3025059
:1041E000022806D0032809D0042801CF09D0066090
:1041F000F7E001CFF117C0E90061F2E001CF0680DE
:10420000EFE00670EDE017F8040B8DF800000020D9
:104210008DF80100EA46012003E057F804AB4FF0A7
:10422000FF3061074FF0000102D40DE008F10101F9
:10423000884659450FDA8045F8DB1AF8081000293E
:10424000F4D108E008F1010188468142FADB1AF84E
:1042500008100029F6D1DDE90D23A9EB08008146FD
:10426000214600F0D5F8304400EB080604E0DDE913
:104270000D121AF8010B9047B8F10108F7D2214648
:104280004846A9E00020C4F302524FF00A0A0A90FF
:10429000022A04D001CFC117032A06D007E0FF1D70
:1042A00027F00707F7E8020105E000B2C117042A6A
:1042B00001D140B2C117021E71F1000207DA0023DA
:1042C000D0EB030063EB01012D2203E00EE0220599
:1042D00004D52B228DF82420012203E0E2071CD014
:1042E0002022F7E70DF1200808921FE00020C4F318
:1042F00002524FF00A0A0A90022A04D001CF00218C
:10430000032A06D006E0FF1D27F00707F7E80201A1
:1043100003E080B2042A00D1C0B20022E2E7524694
:104320000A9BFBF7B9FF303208F8012D50EA010271
:10433000F5D1ADEB080000F1200A600702D524F4A6
:10434000803401E04FF0010BD34502DDABEB0A00F6
:1043500000E00020834600EB0A0108980144A9EB25
:1043600001000A90E00306D4DDE90D2321460A98F6
:1043700000F04EF806444FF0000908E009A911F8D2
:104380000900DDE90D12904709F10109761C089931
:104390008945F3DBE0030CD5DDE90D2321460A98BE
:1043A00000F036F8064404E0DDE90D1230209047B5
:1043B000761CBBF10001ABF1010BF5DC05E0DDE99A
:1043C0000D1218F8010B9047761CBAF10001AAF102
:1043D000010AF4DC0A982146DDE90D2300F006F815
:1043E00006446D1C76E60000092801002DE9F04125
:1043F000044600251E461746880404D405E03946C5
:104400002020B0476D1C641EF9D52846BDE8F08118
:104410002DE9F041044600251E469046C80301D50B
:10442000302700E02027880404D505E041463846BF
:10443000B0476D1C641EF9D52846BDE8F0810A68B6
:10444000531C0B60107070470246002003E00023ED
:1044500041F82030401C9042F9DD704730B50346EA
:104460000A46002152F82100491C06E052F821407A
:1044700000EB800504EB4500491C9942F6DD30BD98
:10448000BAB000203990189017901690159014909B
:1044900013901290119010900F900E900D90282074
:1044A0000C9064200B9028200A900020099008901E
:1044B0000790FFF725FCFCF75BFB4FF6FF70FEF75C
:1044C000FDFCFD49FD48FFF7A9FAFDA04FF6FF737B
:1044D0004FF4784296210090E620FFF703FBFDA001
:1044E0004FF6FF734FF47842AA210090E620FFF7C1
:1044F000F9FAFD4BFD4AFEA119A8FFF7B9FD19A86D
:104500004FF6FF734FF47842BE2100909620FFF7DC
:10451000E9FAE949FB48FFF781FAFB49FB48FFF755
:104520007DFAFBA04FF6FF734FF47842DC21009038
:104530002820FFF7D7FAE049F248FFF76FFA02F0B8
:1045400064BFDD49DD48FFF769FADDA04FF6FF7370
:104550004FF4784296210090E620FFF7C3FADDA0E1
:104560004FF6FF734FF47842AA210090E620FFF740
:10457000B9FADD4BDD4ADEA119A8FFF779FD19A8CC
:104580004FF6FF734FF47842BE2100909620FFF75C
:10459000A9FAC949DB48FFF741FAE5A04FF6FF73D6
:1045A0004FF478420A2100903C20FFF79BFAE4A0E8
:1045B00000900C9880B206900D9880B24FF6FF7371
:1045C0004FF4784205900699FFF78CFADDA04FF67C
:1045D000FF734FF47842282100901E20FFF782FAE3
:1045E000DBA04FF6FF734FF47842462100901E2067
:1045F000FFF778FAD9A04FF6FF734FF478426421A1
:1046000000901E20FFF76EFAD9A04FF6FF734FF40B
:104610007842822100901E20FFF764FAD7A04FF65F
:10462000FF734FF47842A02100901E20FFF75AFA42
:10463000FEF7F0FBD449087008460078012808D03E
:1046400002281FD0032835D0042842F0DC8602F06F
:10465000D9BECEA000900C9880B206900D9880B282
:104660004FF6FF734FF4784205900699FFF73AFA38
:104670000C98A02801D10A200C900C981E300C90A8
:1046800002F0C2BEC1A000900C9880B206900D98B6
:1046900080B24FF6FF734FF4784205900699FFF70A
:1046A00021FA0C98282801D1BE200C900C981E38B5
:1046B0000C90E5E7B6A04FF6FF734FF478420A215D
:1046C00000903C20FFF70EFAB1A000900C9880B249
:1046D00006900D9880B24FF6FF734FF47842059024
:1046E0000699FFF7FFF9AAA04FF6FF734FF478423F
:1046F000282100901E20FFF7F5F9A5A04FF6FF73C3
:104700004FF47842462100901E20FFF7EBF9A8A055
:104710004FF6FF734FF47842642100901E20FFF79C
:10472000E1F9A3A04FF6FF734FF478428221009085
:104730001E20FFF7D7F99EA04FF6FF734FF4784283
:10474000A02100901E20FFF7CDF902F055BE93A0E6
:104750004FF6FF734FF4784296210090E620FFF762
:10476000C1F98EA04FF6FF734FF47842AA21009052
:10477000E620FFF7B7F995A04FF6FF734FF47842A4
:10478000BE2100909620FFF7ADF90A210C9890FB0E
:10479000F1F00A2801F0488305DC04280AD0072834
:1047A00042F0288603E30D2801F0AC871028F7D1EA
:1047B00001F0E6BF00200D9028200C9064200B90A3
:1047C00028200A9084A04FF6FF734FF478420A2104
:1047D00000906420FFF786F982A04FF6FF734FF434
:1047E0007842282100900846FFF77CF97FA04FF619
:1047F000FF734FF47842462100902820FFF772F9AA
:104800007CA04FF6FF734FF478426421009028207B
:10481000FFF768F94AA000900C9806900D984FF6A3
:10482000FF734FF4784205900699FFF75BF967A094
:104830004FF6FF734FF47842282100906420FFF771
:1048400051F96E49179851F820004FF6FF734FF455
:104850007842282100906420FFF710F95BA04FF602
:10486000FF734FF47842462100906420FFF73AF935
:104870006349169851F820004FF6FF734FF47842C1
:10488000462100906420FFF7F9F850A04FF6FF731F
:104890004FF47842642100900846FFF723F9594904
:1048A000159851F820004FF6FF734FF478426421B9
:1048B00000900846A8E0000020530020EC520020A1
:1048C00048415244574152455F56455253494F4E15
:1048D000000000004649524D574152455F5645522F
:1048E00053494F4E000000000C0000200000002043
:1048F0004255494C442054494D453A2025732020C7
:10490000257300000C53002014530020FC5200209B
:104910006B31CFF2CFC220206B32CFF2C9CF202033
:104920006B33C8B7B6A820206B34B7B5BBD800002E
:10493000414439393130C4A3CABDD1A1D4F10000FA
:104940002D3E0000312EB5A5C6B5C4A3CABD0000DA
:10495000322E52414DC4A3CABD000000332ECAFD01
:10496000D7D6D0B1C6C2B5F7D6C6C4A3CABD00005B
:10497000342E4F534BC4A3CABD000000352EB2A243
:10498000BFDAB5F7D6C600001500002020202000B1
:104990002020202020202020202020202020202017
:1049A0002020202020202020202020200000000087
:1049B00020202020202020202020202020202020F7
:1049C0002020202020202020202020002020202007
:1049D0002020202020200000B5A5C6B5C4A3CABD54
:1049E00000000000C6B5C2CA3A000000B7F9B6C858
:1049F0003A000000CFE0CEBB3A0000001C000020CF
:104A000070000020A4000020FFF738F8C8E1FEF78E
:104A100001FAFD49087008460078012806D00228EE
:104A20007ED003287DD004287CD176E10A982828FE
:104A30002AD11798142801D1002017901798401CEC
:104A40001790AFF2780000900A9880B206900B9809
:104A500080B24FF6FF734FF4784205900699FFF746
:104A600041F8EA49179851F8200000900A9880B25E
:104A700006900B9880B24FF6FF734FF47842059082
:104A80000699FEF7FBFF5EE00A9846282AD11698A1
:104A90000C2801D1002016901698401C1690AFF2F9
:104AA000D40000900A9880B206900B9880B24FF61E
:104AB000FF734FF4784205900699FFF713F8D44935
:104AC000169851F8200000900A9880B206900B9832
:104AD00080B24FF6FF734FF4784205900699FEF7C7
:104AE000CDFF30E00A9864282DD11598042801D113
:104AF000002015901598401C1590AFF230100090D2
:104B00000A9880B206900B9880B24FF6FF734FF46C
:104B1000784205900699FEF7E5FFBE49159802E038
:104B200012E098E03AE151F8200000900A9880B233
:104B300006900B9880B24FF6FF734FF478420590C1
:104B40000699FEF79BFF2AE10A98282829D1179891
:104B500008B9152017901798401E1790AFF29410BF
:104B600000900A9880B206900B9880B24FF6FF73BF
:104B70004FF4784205900699FEF7B4FFA3491798C1
:104B800051F8200000900A9880B206900B9880B2ED
:104B90004FF6FF734FF4784205900699FEF76EFFCB
:104BA00058E00A98462829D1169808B90D20169081
:104BB0001698401E1690AFF2EC1000900A9880B242
:104BC00006900B9880B24FF6FF734FF47842059031
:104BD0000699FEF787FF8E49169851F8200000903D
:104BE0000A9880B206900B9880B24FF6FF734FF48C
:104BF000784205900699FEF741FF2BE00A98642859
:104C000028D1159808B9042015901598401E1590C4
:104C1000AFF2482000900A9880B206900B9880B2BC
:104C20004FF6FF734FF4784205900699FEF75AFF4E
:104C30007849159851F8200000900A9880B20690A3
:104C40000B9880B24FF6FF734FF4784205900699A7
:104C5000FEF714FFA3E00A98282805D16B4917989E
:104C600051F8200009901EE00A98462805D16849AD
:104C7000169851F82000089015E00A98642812D17F
:104C80006449159851F820000790FDF727FD079813
:104C900080B20690089880B2059002460020069BDC
:104CA0000999FDF771FDAFF2D42000900C9880B205
:104CB00006900D9880B24FF6FF734FF4784205903E
:104CC0000699FEF70FFF0C981E300C90AFF2903053
:104CD00000900C9880B206900D9880B24FF6FF734A
:104CE0004FF4784205900699FEF7FCFE0C98822856
:104CF0000FDBAFF2203000900C9880B206900D9838
:104D000080B24FF6FF734FF4784205900699FEF794
:104D1000E9FE0A981E300A9041E03FA04FF6FF736B
:104D20004FF47842282100901E20FEF7DBFE3AA0C7
:104D30004FF6FF734FF47842462100901E20FEF795
:104D4000D1FE41A04FF6FF734FF4784264210090EA
:104D50001E20FEF7C7FE3CA04FF6FF734FF47842CB
:104D6000822100901E20FEF7BDFEAFF29830009029
:104D70000C9880B206900D9880B24FF6FF734FF4F6
:104D8000784205900699FEF7ADFE00200D90282090
:104D90000C9064200B9028200A9000E000BF00BF18
:104DA0001948007804287FF432AE02F024BB0020BA
:104DB0000D9028200C9001F030B8002039902DA0E3
:104DC0004FF6FF734FF478420A2100906420FEF7FB
:104DD00089FEAFF2944000900C9880B206900D9836
:104DE00080B24FF6FF734FF4784205900699FEF7B4
:104DF00079FE22A04FF6FF734FF4784228210090ED
:104E00002320FEF76FFE41E0150000201C0000206B
:104E100070000020A400002020202020202020203E
:104E20002020202020202020202020202020202082
:104E30002020202020202020202020202020202072
:104E400020202020000000002020202020202020E2
:104E50002020202020202020202020202020202052
:104E60002020202020202020202020202020202042
:104E70002020200052414DC4A3CABD00312ED6B11E
:104E8000BDD3D7AABBBBC4A3CABD0000FEA04FF6CA
:104E9000FF734FF47842462100902320FEF722FE54
:104EA000FDA04FF6FF734FF4784264210090232059
:104EB000FEF718FEFCA04FF6FF734FF478428221F4
:104EC00000902320FEF70EFEFCA04FF6FF734FF478
:104ED0007842A02100902320FEF704FEFBA04FF6AD
:104EE000FF734FF47842BE2100902320FEF7FAFDB5
:104EF00000F08BBFFDF78EFFF84908700846007878
:104F0000012807D002282FD0032856D0042840F0CB
:104F10007A87F2E3AFF2445000900C9880B206908A
:104F20000D9880B24FF6FF734FF4784205900699C2
:104F3000FEF7D8FD0C98BE2801D10A200C900C98E1
:104F40001E300C90AFF2086000900C9880B2069072
:104F50000D9880B24FF6FF734FF478420590069992
:104F6000FEF7C0FD00F050BFAFF2985000900C98D3
:104F700080B206900D9880B24FF6FF734FF47842DE
:104F800005900699FEF7AEFD0C98282801D1DC208B
:104F90000C900C981E380C90AFF25C6000900C984E
:104FA00080B206900D9880B24FF6FF734FF47842AE
:104FB00005900699FEF796FDD4E7AFF2E850009011
:104FC0000C9880B206900D9880B24FF6FF734FF4A4
:104FD000784205900699FEF785FDAFF278104FF6FE
:104FE000FF734FF478420A2100906420FEF77AFDA7
:104FF000AFF290104FF6FF734FF4784228210090E3
:105000001E20FEF76FFDAFF2A4104FF6FF734FF4B2
:105010007842462100901E20FEF764FDB0A04FF6B6
:10502000FF734FF47842642100901E20FEF75AFD72
:10503000ABA04FF6FF734FF47842822100901E2000
:10504000FEF750FDAFF2E4104FF6FF734FF47842D5
:10505000A02100901E20FEF745FDAFF2F4104FF6A0
:10506000FF734FF47842BE2100901E20FEF73AFDF8
:105070000C9828286FD185E19DA04FF6FF734FF45F
:1050800078420A2100906420FEF72CFDAFF25070A8
:1050900000900C9880B206900D9880B24FF6FF7386
:1050A0004FF4784205900699FEF71CFD94A04FF648
:1050B000FF734FF47842282100901E20FEF712FD66
:1050C00091A04FF6FF734FF47842462100901E20C6
:1050D000FEF708FD8EA04FF6FF734FF4784264216F
:1050E00000901E20FEF7FEFCFDF794FE7B49087041
:1050F00008460078012806D002282DD0032853D076
:1051000004286FD19FE079A000900C9880B206909F
:105110000D9880B24FF6FF734FF4784205900699D0
:10512000FEF7E0FC0C981E300C900C98822801D100
:1051300028200C90AFF2F87000900C9880B2069086
:105140000D9880B24FF6FF734FF4784205900699A0
:10515000FEF7C8FC15E11BE164A000900C9880B23A
:1051600006900D9880B24FF6FF734FF47842059089
:105170000699FEF7B7FC0C981E380C900C980A287C
:1051800001D164200C90AFF6480000900C9880B2DA
:1051900006900D9880B24FF6FF734FF47842059059
:1051A0000699FEF79FFCECE00A210C9890FBF1F0C9
:1051B000042804D0072809D00A2820D113E0FCF7DE
:1051C00033FEFCF785FDFCF7BFFB19E0FCF72CFE76
:1051D000FDF7D4F95048FDF727FAFBF783FEFCF7FB
:1051E000D1FA0DE0CCE0FCF71FFEFDF7C7F94A4805
:1051F000FDF71AFAFCF78EFEFCF788FC00E000BF12
:1052000000BF0020FEF718FE0A20FDF70BFC01206E
:10521000FEF712FE0A20FDF705FC0220FEF70CFE49
:105220000A20FDF7FFFB0320FEF706FE0A20FDF72C
:10523000F9FB0420FEF700FE0A20FDF7F3FB002037
:10524000FEF7FAFD9DE029A000900C9880B2069030
:105250000D9880B24FF6FF734FF47842059006998F
:10526000FEF740FC1EA04FF6FF734FF478420A2170
:1052700000906420FEF736FCAFF2404000900C989E
:1052800080B206900D9849E0322EC9CFD0B1C6C287
:10529000C4A3CABD00000000332ECBABCFF2D0B107
:1052A000C6C2C4A3CABD0000342EC1ACD0F8CBAB7B
:1052B000CFF2D0B1C6C2C4A3CABD0000352EC1AC66
:1052C000D0F8D1ADBBB7C4A3CABD0000362EC8FD0F
:1052D000BDC7B2A8BACDB7BDB2A800001500002066
:1052E00020202020202020202020202020200000FE
:1052F000D6B1BDD3D7AABBBBC4A3CABD00000000B2
:10530000312EC6B5C2CA0000322EB7F9B6C80000A9
:10531000332ECFE0CEBB000040420F0080B24FF6EC
:10532000FF734FF4784205900699FEF7DBFBAFF26E
:10533000F4404FF6FF734FF47842282100901E206E
:10534000FEF7D0FBAFF20C504FF6FF734FF47842EC
:10535000462100901E20FEF7C5FBAFF220504FF60D
:10536000FF734FF47842642100901E20FEF7BAFBD1
:10537000012039900520F749087028200C9000E0A2
:1053800000BF00BFF348007805287FF475AE15E232
:105390000C98462875D128200C9005E1EEA04FF618
:1053A000FF734FF478420A2100906420FEF79AFBC5
:1053B000AFF6742000900C9880B206900D9880B2E1
:1053C0004FF6FF734FF4784205900699FEF78AFB7B
:1053D000AFF2D4004FF6FF734FF4784228210090CB
:1053E0001E20FEF77FFBAFF2E0004FF6FF734FF495
:1053F0007842462100901E20FEF774FBAFF2F000C9
:105400004FF6FF734FF47842642100901E20FEF7A0
:1054100069FBFDF7FFFCCF490870084600780128BA
:1054200006D002282ED0032855D0042871D1A1E03F
:10543000AFF2481000900C9880B206900D9880B2A0
:105440004FF6FF734FF4784205900699FEF74AFB3A
:105450000C981E300C900C98822801D128200C90BA
:10546000AFF6243000900C9880B206900D9880B270
:105470004FF6FF734FF4784205900699FEF732FB22
:1054800091E097E0AFF29C1000900C9880B20690EB
:105490000D9880B24FF6FF734FF47842059006994D
:1054A000FEF720FB0C981E380C900C980A2801D1AE
:1054B00064200C90AFF6783000900C9880B2069083
:1054C0000D9880B24FF6FF734FF47842059006991D
:1054D000FEF708FB67E00A210C9890FBF1F0042826
:1054E00004D0072809D00A2820D113E0FCF79CFC3F
:1054F000FCF7EEFBFCF77EFE19E0FCF795FCFDF7F0
:105500003DF89848FDF790F8FBF7ECFCFCF790FDB0
:105510000DE047E0FCF788FCFDF730F89148FDF717
:1055200083F8FCF7F7FCFCF747FF00E000BF00BF83
:105530000020FEF781FC0A20FDF774FA0120FEF737
:105540007BFC0A20FDF76EFA0220FEF775FC0A20AC
:10555000FDF768FA0320FEF76FFC0A20FDF762FAF8
:105560000420FEF769FC0A20FDF75CFA0020FEF734
:1055700063FC18E0AFF28C2000900C9880B206908B
:105580000D9880B24FF6FF734FF47842059006995C
:10559000FEF7A8FA0120399005206E4908702820EE
:1055A0000C9000E000BF00BF6A48007805287FF437
:1055B000F5AECDE30C98642875D128200C90F8E066
:1055C00069A04FF6FF734FF478420A2100906420DF
:1055D000FEF788FAAFF6984000900C9880B20690DB
:1055E0000D9880B24FF6FF734FF4784205900699FC
:1055F000FEF778FAAFF2F8204FF6FF734FF47842D7
:10560000282100901E20FEF76DFAAFF204304FF60D
:10561000FF734FF47842462100901E20FEF762FA95
:10562000AFF214304FF6FF734FF4784264210090CC
:105630001E20FEF757FAFDF7EDFB464908700846B5
:105640000078012806D002282ED0032856D004283E
:1056500072D194E0AFF26C3000900C9880B206905A
:105660000D9880B24FF6FF734FF47842059006997B
:10567000FEF738FA0C981E300C900C98822801D155
:1056800028200C90AFF6485000900C9880B20690FD
:105690000D9880B24FF6FF734FF47842059006994B
:1056A000FEF720FA84E08AE0AFF2C03000900C9858
:1056B00080B206900D9880B24FF6FF734FF4784297
:1056C00005900699FEF70EFA0C981E380C900C986F
:1056D0000A2801D164200C90AFF69C5000900C98E1
:1056E00080B206900D9880B24FF6FF734FF4784267
:1056F00005900699FEF7F6F95AE02AE30A210C987C
:1057000090FBF1F0042804D0072809D00A2833D1EF
:1057100013E0FCF789FBFCF7DBFAFBF7CDFC2CE090
:10572000FCF782FBFCF72AFF0E48FCF77DFFFBF736
:10573000D9FBFBF765FC20E039E0FCF775FBFCF7D3
:105740001DFF0848FCF770FFFCF7E4FBFBF796FD34
:1057500013E0000015000020C9CFD0B1C6C2C4A319
:10576000CABD000040420F00CBABCFF2D0B1C6C2E1
:10577000C4A3CABD0000000000BF00BF18E0AFF224
:10578000944000900C9880B206900D9880B24FF62D
:10579000FF734FF4784205900699FEF7A3F90120B4
:1057A00039900520F849087028200C9000E000BFCF
:1057B00000BFF548007805287FF402AFC8E20C98D6
:1057C000822875D128200C90E4E0F0A04FF6FF73FA
:1057D0004FF478420A2100906420FEF783F9AFF677
:1057E000A06000900C9880B206900D9880B24FF6A1
:1057F000FF734FF4784205900699FEF773F9AFF204
:1058000000504FF6FF734FF47842282100901E207D
:10581000FEF768F9AFF210504FF6FF734FF478427D
:10582000462100901E20FEF75DF9AFF21C504FF6A6
:10583000FF734FF47842642100901E20FEF752F966
:10584000FDF7E8FAD049087008460078012806D02C
:1058500002282ED0032855D0042871D180E0AFF261
:10586000745000900C9880B206900D9880B24FF65C
:10587000FF734FF4784205900699FEF733F90C98C0
:105880001E300C900C98822801D128200C90AFF685
:10589000507000900C9880B206900D9880B24FF630
:1058A000FF734FF4784205900699FEF71BF970E0FC
:1058B00076E0AFF2C85000900C9880B206900D9838
:1058C00080B24FF6FF734FF4784205900699FEF7C9
:1058D00009F90C981E380C900C980A2801D1642004
:1058E0000C90AFF6A47000900C9880B206900D98C2
:1058F00080B24FF6FF734FF4784205900699FEF799
:10590000F1F846E00A210C9890FBF1F0042804D04D
:10591000072809D00A2820D113E0FCF785FAFCF704
:10592000D7F9FBF763FD19E0FCF77EFAFCF726FEDA
:105930009B48FCF779FEFBF7D5FAFBF7FBFC0DE083
:1059400026E0FCF771FAFCF719FE9548FCF76CFEAF
:10595000FCF7E0FAFBF7A6FD00E000BF00BF18E08F
:10596000AFF2786000900C9880B206900D9880B2EB
:105970004FF6FF734FF4784205900699FEF7B2F8A0
:105980000120399005208049087028200C9000E003
:1059900000BF00BF7C48007805287FF416AFD7E130
:1059A0000C98A02873D128200C90E1E07DA04FF640
:1059B000FF734FF478420A2100906420FEF792F8BA
:1059C0007CA000900C9880B206900D9880B24FF6A3
:1059D000FF734FF4784205900699FEF783F8AFF213
:1059E000E0604FF6FF734FF47842282100901E20AC
:1059F000FEF778F8AFF2F0604FF6FF734FF478429D
:105A0000462100901E20FEF76DF8AFF2FC604FF6C5
:105A1000FF734FF47842642100901E20FEF762F875
:105A2000FDF7F8F95849087008460078012806D0B3
:105A300002282DD0032853D004286FD17EE0AFF286
:105A4000547000900C9880B206900D9880B24FF67A
:105A5000FF734FF4784205900699FEF743F80C98CF
:105A60001E300C900C98822801D128200C9051A057
:105A700000900C9880B206900D9880B24FF6FF739C
:105A80004FF4784205900699FEF72CF86FE075E028
:105A9000AFF2A87000900C9880B206900D9880B27A
:105AA0004FF6FF734FF4784205900699FEF71AF807
:105AB0000C981E380C900C980A2801D164200C9088
:105AC0003CA000900C9880B206900D9880B24FF6E2
:105AD000FF734FF4784205900699FEF703F846E00D
